{
  "contractName": "KeyManager",
  "abi": [
    {
      "inputs": [],
      "payable": false,
      "stateMutability": "nonpayable",
      "type": "constructor"
    },
    {
      "anonymous": false,
      "inputs": [
        {
          "indexed": true,
          "name": "key",
          "type": "bytes32"
        },
        {
          "indexed": true,
          "name": "purpose",
          "type": "uint256"
        },
        {
          "indexed": true,
          "name": "keyType",
          "type": "uint256"
        }
      ],
      "name": "KeyAdded",
      "type": "event"
    },
    {
      "anonymous": false,
      "inputs": [
        {
          "indexed": true,
          "name": "key",
          "type": "bytes32"
        },
        {
          "indexed": true,
          "name": "purpose",
          "type": "uint256"
        },
        {
          "indexed": true,
          "name": "keyType",
          "type": "uint256"
        }
      ],
      "name": "KeyRemoved",
      "type": "event"
    },
    {
      "anonymous": false,
      "inputs": [
        {
          "indexed": true,
          "name": "executionID",
          "type": "uint256"
        },
        {
          "indexed": true,
          "name": "to",
          "type": "address"
        },
        {
          "indexed": true,
          "name": "value",
          "type": "uint256"
        },
        {
          "indexed": false,
          "name": "data",
          "type": "bytes"
        }
      ],
      "name": "ExecutionRequested",
      "type": "event"
    },
    {
      "anonymous": false,
      "inputs": [
        {
          "indexed": true,
          "name": "executionID",
          "type": "uint256"
        },
        {
          "indexed": true,
          "name": "to",
          "type": "address"
        },
        {
          "indexed": true,
          "name": "value",
          "type": "uint256"
        },
        {
          "indexed": false,
          "name": "data",
          "type": "bytes"
        }
      ],
      "name": "Executed",
      "type": "event"
    },
    {
      "anonymous": false,
      "inputs": [
        {
          "indexed": true,
          "name": "executionID",
          "type": "uint256"
        },
        {
          "indexed": false,
          "name": "approved",
          "type": "bool"
        }
      ],
      "name": "Approved",
      "type": "event"
    },
    {
      "anonymous": false,
      "inputs": [
        {
          "indexed": false,
          "name": "purpose",
          "type": "uint256"
        },
        {
          "indexed": false,
          "name": "number",
          "type": "uint256"
        }
      ],
      "name": "KeysRequiredChanged",
      "type": "event"
    },
    {
      "anonymous": false,
      "inputs": [
        {
          "indexed": true,
          "name": "claimId",
          "type": "bytes32"
        },
        {
          "indexed": true,
          "name": "claimType",
          "type": "uint256"
        },
        {
          "indexed": false,
          "name": "scheme",
          "type": "uint256"
        },
        {
          "indexed": true,
          "name": "issuer",
          "type": "address"
        },
        {
          "indexed": false,
          "name": "signature",
          "type": "bytes"
        },
        {
          "indexed": false,
          "name": "data",
          "type": "bytes"
        },
        {
          "indexed": false,
          "name": "uri",
          "type": "string"
        }
      ],
      "name": "ClaimAdded",
      "type": "event"
    },
    {
      "anonymous": false,
      "inputs": [
        {
          "indexed": true,
          "name": "claimId",
          "type": "bytes32"
        },
        {
          "indexed": true,
          "name": "claimType",
          "type": "uint256"
        },
        {
          "indexed": false,
          "name": "scheme",
          "type": "uint256"
        },
        {
          "indexed": true,
          "name": "issuer",
          "type": "address"
        },
        {
          "indexed": false,
          "name": "signature",
          "type": "bytes"
        },
        {
          "indexed": false,
          "name": "data",
          "type": "bytes"
        },
        {
          "indexed": false,
          "name": "uri",
          "type": "string"
        }
      ],
      "name": "ClaimRemoved",
      "type": "event"
    },
    {
      "anonymous": false,
      "inputs": [
        {
          "indexed": true,
          "name": "claimId",
          "type": "bytes32"
        },
        {
          "indexed": true,
          "name": "claimType",
          "type": "uint256"
        },
        {
          "indexed": false,
          "name": "scheme",
          "type": "uint256"
        },
        {
          "indexed": true,
          "name": "issuer",
          "type": "address"
        },
        {
          "indexed": false,
          "name": "signature",
          "type": "bytes"
        },
        {
          "indexed": false,
          "name": "data",
          "type": "bytes"
        },
        {
          "indexed": false,
          "name": "uri",
          "type": "string"
        }
      ],
      "name": "ClaimChanged",
      "type": "event"
    },
    {
      "constant": true,
      "inputs": [
        {
          "name": "_key",
          "type": "bytes32"
        },
        {
          "name": "_purpose",
          "type": "uint256"
        }
      ],
      "name": "keyHasPurpose",
      "outputs": [
        {
          "name": "isExistent",
          "type": "bool"
        }
      ],
      "payable": false,
      "stateMutability": "view",
      "type": "function"
    },
    {
      "constant": true,
      "inputs": [
        {
          "name": "_key",
          "type": "bytes32"
        }
      ],
      "name": "getKey",
      "outputs": [
        {
          "name": "purpose",
          "type": "uint256"
        },
        {
          "name": "keyType",
          "type": "uint256"
        },
        {
          "name": "key",
          "type": "bytes32"
        }
      ],
      "payable": false,
      "stateMutability": "view",
      "type": "function"
    },
    {
      "constant": true,
      "inputs": [
        {
          "name": "_purpose",
          "type": "uint256"
        }
      ],
      "name": "getKeysByPurpose",
      "outputs": [
        {
          "name": "_keys",
          "type": "bytes32[]"
        }
      ],
      "payable": false,
      "stateMutability": "view",
      "type": "function"
    },
    {
      "constant": false,
      "inputs": [
        {
          "name": "_key",
          "type": "bytes32"
        },
        {
          "name": "_purpose",
          "type": "uint256"
        },
        {
          "name": "_keyType",
          "type": "uint256"
        }
      ],
      "name": "addKey",
      "outputs": [
        {
          "name": "success",
          "type": "bool"
        }
      ],
      "payable": false,
      "stateMutability": "nonpayable",
      "type": "function"
    },
    {
      "constant": false,
      "inputs": [
        {
          "name": "_key",
          "type": "bytes32"
        },
        {
          "name": "_purpose",
          "type": "uint256"
        }
      ],
      "name": "removeKey",
      "outputs": [
        {
          "name": "success",
          "type": "bool"
        }
      ],
      "payable": false,
      "stateMutability": "nonpayable",
      "type": "function"
    },
    {
      "constant": true,
      "inputs": [
        {
          "name": "_claimId",
          "type": "bytes32"
        }
      ],
      "name": "getClaim",
      "outputs": [
        {
          "name": "claimType",
          "type": "uint256"
        },
        {
          "name": "issuer",
          "type": "address"
        },
        {
          "name": "signatureType",
          "type": "uint256"
        },
        {
          "name": "signature",
          "type": "bytes"
        },
        {
          "name": "claim",
          "type": "bytes"
        },
        {
          "name": "uri",
          "type": "string"
        }
      ],
      "payable": false,
      "stateMutability": "view",
      "type": "function"
    },
    {
      "constant": true,
      "inputs": [
        {
          "name": "_claimType",
          "type": "uint256"
        }
      ],
      "name": "getClaimsIdByType",
      "outputs": [
        {
          "name": "",
          "type": "bytes32[]"
        }
      ],
      "payable": false,
      "stateMutability": "view",
      "type": "function"
    },
    {
      "constant": false,
      "inputs": [
        {
          "name": "_claimType",
          "type": "uint256"
        },
        {
          "name": "_issuer",
          "type": "address"
        },
        {
          "name": "_signatureType",
          "type": "uint256"
        },
        {
          "name": "_signature",
          "type": "bytes"
        },
        {
          "name": "_claim",
          "type": "bytes"
        },
        {
          "name": "_uri",
          "type": "string"
        }
      ],
      "name": "addClaim",
      "outputs": [
        {
          "name": "claimId",
          "type": "bytes32"
        }
      ],
      "payable": false,
      "stateMutability": "nonpayable",
      "type": "function"
    },
    {
      "constant": false,
      "inputs": [
        {
          "name": "_claimId",
          "type": "bytes32"
        }
      ],
      "name": "removeClaim",
      "outputs": [
        {
          "name": "success",
          "type": "bool"
        }
      ],
      "payable": false,
      "stateMutability": "nonpayable",
      "type": "function"
    }
  ],
  "bytecode": "0x608060405234801561001057600080fd5b50600033604051602001808273ffffffffffffffffffffffffffffffffffffffff1673ffffffffffffffffffffffffffffffffffffffff166c010000000000000000000000000281526014019150506040516020818303038152906040528051906020012090506060604051908101604052806001815260200160018152602001828152506000808381526020019081526020016000206000820151816000015560208201518160010155604082015181600201559050506001600060018152602001908152602001600020819080600181540180825580915050906001820390600052602060002001600090919290919091505550600180827f480000bb1edad8ca1470381cc334b1917fbd51c6531f3a623ea8e0ec7e38a6e960405160405180910390a450611c09806101466000396000f3fe608060405234801561001057600080fd5b50600436106100b0576000357c01000000000000000000000000000000000000000000000000000000009004806353d413c51161008357806353d413c5146103d65780636fa28249146104265780639010f726146104a9578063c9100bcb1461052c578063d202158d146106ec576100b0565b80630607f937146100b557806312aaac70146102e65780631d381240146103365780634eee424a14610390575b600080fd5b6102d0600480360360c08110156100cb57600080fd5b8101908080359060200190929190803573ffffffffffffffffffffffffffffffffffffffff169060200190929190803590602001909291908035906020019064010000000081111561011c57600080fd5b82018360208201111561012e57600080fd5b8035906020019184600183028401116401000000008311171561015057600080fd5b91908080601f016020809104026020016040519081016040528093929190818152602001838380828437600081840152601f19601f820116905080830192505050505050509192919290803590602001906401000000008111156101b357600080fd5b8201836020820111156101c557600080fd5b803590602001918460018302840111640100000000831117156101e757600080fd5b91908080601f016020809104026020016040519081016040528093929190818152602001838380828437600081840152601f19601f8201169050808301925050505050505091929192908035906020019064010000000081111561024a57600080fd5b82018360208201111561025c57600080fd5b8035906020019184600183028401116401000000008311171561027e57600080fd5b91908080601f016020809104026020016040519081016040528093929190818152602001838380828437600081840152601f19601f82011690508083019250505050505050919291929050505061073c565b6040518082815260200191505060405180910390f35b610312600480360360208110156102fc57600080fd5b8101908080359060200190929190505050610a94565b60405180848152602001838152602001828152602001935050505060405180910390f35b6103766004803603606081101561034c57600080fd5b81019080803590602001909291908035906020019092919080359060200190929190505050610ae8565b604051808215151515815260200191505060405180910390f35b6103bc600480360360208110156103a657600080fd5b8101908080359060200190929190505050610ddc565b604051808215151515815260200191505060405180910390f35b61040c600480360360408110156103ec57600080fd5b8101908080359060200190929190803590602001909291905050506111d9565b604051808215151515815260200191505060405180910390f35b6104526004803603602081101561043c57600080fd5b8101908080359060200190929190505050611552565b6040518080602001828103825283818151815260200191508051906020019060200280838360005b8381101561049557808201518184015260208101905061047a565b505050509050019250505060405180910390f35b6104d5600480360360208110156104bf57600080fd5b81019080803590602001909291905050506115bd565b6040518080602001828103825283818151815260200191508051906020019060200280838360005b838110156105185780820151818401526020810190506104fd565b505050509050019250505060405180910390f35b6105586004803603602081101561054257600080fd5b8101908080359060200190929190505050611628565b604051808781526020018673ffffffffffffffffffffffffffffffffffffffff1673ffffffffffffffffffffffffffffffffffffffff168152602001858152602001806020018060200180602001848103845287818151815260200191508051906020019080838360005b838110156105de5780820151818401526020810190506105c3565b50505050905090810190601f16801561060b5780820380516001836020036101000a031916815260200191505b50848103835286818151815260200191508051906020019080838360005b83811015610644578082015181840152602081019050610629565b50505050905090810190601f1680156106715780820380516001836020036101000a031916815260200191505b50848103825285818151815260200191508051906020019080838360005b838110156106aa57808201518184015260208101905061068f565b50505050905090810190601f1680156106d75780820380516001836020036101000a031916815260200191505b50995050505050505050505060405180910390f35b6107226004803603604081101561070257600080fd5b8101908080359060200190929190803590602001909291905050506118e8565b604051808215151515815260200191505060405180910390f35b60008587604051602001808373ffffffffffffffffffffffffffffffffffffffff1673ffffffffffffffffffffffffffffffffffffffff166c010000000000000000000000000281526014018281526020019250505060405160208183030381529060405280519060200120905060c0604051908101604052808881526020018773ffffffffffffffffffffffffffffffffffffffff16815260200186815260200185815260200184815260200183815250600260008381526020019081526020016000206000820151816000015560208201518160010160006101000a81548173ffffffffffffffffffffffffffffffffffffffff021916908373ffffffffffffffffffffffffffffffffffffffff160217905550604082015181600201556060820151816003019080519060200190610878929190611944565b506080820151816004019080519060200190610895929190611944565b5060a08201518160050190805190602001906108b29291906119c4565b50905050600360008881526020019081526020016000208190806001815401808255809150509060018203906000526020600020016000909192909190915055508573ffffffffffffffffffffffffffffffffffffffff1687827f46149b18aa084502c3f12bc75e19eda8bda8d102b82cce8474677a6d0d5f43c58888888860405180858152602001806020018060200180602001848103845287818151815260200191508051906020019080838360005b8381101561097f578082015181840152602081019050610964565b50505050905090810190601f1680156109ac5780820380516001836020036101000a031916815260200191505b50848103835286818151815260200191508051906020019080838360005b838110156109e55780820151818401526020810190506109ca565b50505050905090810190601f168015610a125780820380516001836020036101000a031916815260200191505b50848103825285818151815260200191508051906020019080838360005b83811015610a4b578082015181840152602081019050610a30565b50505050905090810190601f168015610a785780820380516001836020036101000a031916815260200191505b5097505050505050505060405180910390a49695505050505050565b60008060008060008581526020019081526020016000206000015460008086815260200190815260200160002060010154600080878152602001908152602001600020600201549250925092509193909250565b6000836000808681526020019081526020016000206002015414151515610b77576040517f08c379a00000000000000000000000000000000000000000000000000000000081526004018080602001828103825260138152602001807f4b657920616c7265616479206578697374732e0000000000000000000000000081525060200191505060405180910390fd5b3073ffffffffffffffffffffffffffffffffffffffff163373ffffffffffffffffffffffffffffffffffffffff16141515610d16573073ffffffffffffffffffffffffffffffffffffffff1663d202158d33604051602001808273ffffffffffffffffffffffffffffffffffffffff1673ffffffffffffffffffffffffffffffffffffffff166c010000000000000000000000000281526014019150506040516020818303038152906040528051906020012060016040518363ffffffff167c0100000000000000000000000000000000000000000000000000000000028152600401808381526020018281526020019250505060206040518083038186803b158015610c8357600080fd5b505afa158015610c97573d6000803e3d6000fd5b505050506040513d6020811015610cad57600080fd5b81019080805190602001909291905050501515610d15576040517f08c379a0000000000000000000000000000000000000000000000000000000008152600401808060200182810382526023815260200180611b986023913960400191505060405180910390fd5b5b60606040519081016040528084815260200183815260200185815250600080868152602001908152602001600020600082015181600001556020820151816001015560408201518160020155905050600160008481526020019081526020016000208490806001815401808255809150509060018203906000526020600020016000909192909190915055508183857f480000bb1edad8ca1470381cc334b1917fbd51c6531f3a623ea8e0ec7e38a6e960405160405180910390a4600190509392505050565b6000806003600060026000868152602001908152602001600020600001548152602001908152602001600020905060008090505b8180549050811015610ec257838282815481101515610e2b57fe5b90600052602060002001541415610eb557816001838054905003815481101515610e5157fe5b90600052602060002001548282815481101515610e6a57fe5b9060005260206000200181905550816001838054905003815481101515610e8d57fe5b906000526020600020016000905581805480919060019003610eaf9190611a44565b50610ec2565b8080600101915050610e10565b50600260008481526020019081526020016000206000808201600090556001820160006101000a81549073ffffffffffffffffffffffffffffffffffffffff02191690556002820160009055600382016000610f1e9190611a70565b600482016000610f2e9190611a70565b600582016000610f3e9190611ab8565b50506002600084815260200190815260200160002060010160009054906101000a900473ffffffffffffffffffffffffffffffffffffffff1673ffffffffffffffffffffffffffffffffffffffff166002600085815260200190815260200160002060000154847f3cf57863a89432c61c4a27073c6ee39e8a764bff5a05aebfbcdcdc80b2e6130a600260008881526020019081526020016000206002015460026000898152602001908152602001600020600301600260008a8152602001908152602001600020600401600260008b8152602001908152602001600020600501604051808581526020018060200180602001806020018481038452878181546001816001161561010002031660029004815260200191508054600181600116156101000203166002900480156110b65780601f1061108b576101008083540402835291602001916110b6565b820191906000526020600020905b81548152906001019060200180831161109957829003601f168201915b50508481038352868181546001816001161561010002031660029004815260200191508054600181600116156101000203166002900480156111395780601f1061110e57610100808354040283529160200191611139565b820191906000526020600020905b81548152906001019060200180831161111c57829003601f168201915b50508481038252858181546001816001161561010002031660029004815260200191508054600181600116156101000203166002900480156111bc5780601f10611191576101008083540402835291602001916111bc565b820191906000526020600020905b81548152906001019060200180831161119f57829003601f168201915b505097505050505050505060405180910390a46001915050919050565b60008260008085815260200190815260200160002060020154141515611267576040517f08c379a000000000000000000000000000000000000000000000000000000000815260040180806020018281038252600c8152602001807f4e6f2073756368206b65792e000000000000000000000000000000000000000081525060200191505060405180910390fd5b3073ffffffffffffffffffffffffffffffffffffffff163373ffffffffffffffffffffffffffffffffffffffff16141515611406573073ffffffffffffffffffffffffffffffffffffffff1663d202158d33604051602001808273ffffffffffffffffffffffffffffffffffffffff1673ffffffffffffffffffffffffffffffffffffffff166c010000000000000000000000000281526014019150506040516020818303038152906040528051906020012060016040518363ffffffff167c0100000000000000000000000000000000000000000000000000000000028152600401808381526020018281526020019250505060206040518083038186803b15801561137357600080fd5b505afa158015611387573d6000803e3d6000fd5b505050506040513d602081101561139d57600080fd5b81019080805190602001909291905050501515611405576040517f08c379a0000000000000000000000000000000000000000000000000000000008152600401808060200182810382526023815260200180611bbb6023913960400191505060405180910390fd5b5b600080848152602001908152602001600020600080820160009055600182016000905560028201600090555050600060016000848152602001908152602001600020905060008090505b81805490508110156115025784828281548110151561146b57fe5b906000526020600020015414156114f55781600183805490500381548110151561149157fe5b906000526020600020015482828154811015156114aa57fe5b90600052602060002001819055508160018380549050038154811015156114cd57fe5b9060005260206000200160009055818054809190600190036114ef9190611a44565b50611502565b8080600101915050611450565b506000808581526020019081526020016000206001015483857f585a4aef50f8267a92b32412b331b20f7f8b96f2245b253b9cc50dcc621d339760405160405180910390a4600191505092915050565b6060600360008381526020019081526020016000208054806020026020016040519081016040528092919081815260200182805480156115b157602002820191906000526020600020905b81548152602001906001019080831161159d575b50505050509050919050565b60606001600083815260200190815260200160002080548060200260200160405190810160405280929190818152602001828054801561161c57602002820191906000526020600020905b815481526020019060010190808311611608575b50505050509050919050565b6000806000606080606061163a611b00565b6002600089815260200190815260200160002060c06040519081016040529081600082015481526020016001820160009054906101000a900473ffffffffffffffffffffffffffffffffffffffff1673ffffffffffffffffffffffffffffffffffffffff1673ffffffffffffffffffffffffffffffffffffffff16815260200160028201548152602001600382018054600181600116156101000203166002900480601f01602080910402602001604051908101604052809291908181526020018280546001816001161561010002031660029004801561175c5780601f106117315761010080835404028352916020019161175c565b820191906000526020600020905b81548152906001019060200180831161173f57829003601f168201915b50505050508152602001600482018054600181600116156101000203166002900480601f0160208091040260200160405190810160405280929190818152602001828054600181600116156101000203166002900480156117fe5780601f106117d3576101008083540402835291602001916117fe565b820191906000526020600020905b8154815290600101906020018083116117e157829003601f168201915b50505050508152602001600582018054600181600116156101000203166002900480601f0160208091040260200160405190810160405280929190818152602001828054600181600116156101000203166002900480156118a05780601f10611875576101008083540402835291602001916118a0565b820191906000526020600020905b81548152906001019060200180831161188357829003601f168201915b5050505050815250509050806000015181602001518260400151836060015184608001518560a001518292508191508090509650965096509650965096505091939550919395565b600080600102600080858152602001908152602001600020600201541415611913576000905061193e565b81600080858152602001908152602001600020600001541415611939576001905061193e565b600090505b92915050565b828054600181600116156101000203166002900490600052602060002090601f016020900481019282601f1061198557805160ff19168380011785556119b3565b828001600101855582156119b3579182015b828111156119b2578251825591602001919060010190611997565b5b5090506119c09190611b4d565b5090565b828054600181600116156101000203166002900490600052602060002090601f016020900481019282601f10611a0557805160ff1916838001178555611a33565b82800160010185558215611a33579182015b82811115611a32578251825591602001919060010190611a17565b5b509050611a409190611b4d565b5090565b815481835581811115611a6b57818360005260206000209182019101611a6a9190611b72565b5b505050565b50805460018160011615610100020316600290046000825580601f10611a965750611ab5565b601f016020900490600052602060002090810190611ab49190611b4d565b5b50565b50805460018160011615610100020316600290046000825580601f10611ade5750611afd565b601f016020900490600052602060002090810190611afc9190611b4d565b5b50565b60c06040519081016040528060008152602001600073ffffffffffffffffffffffffffffffffffffffff168152602001600081526020016060815260200160608152602001606081525090565b611b6f91905b80821115611b6b576000816000905550600101611b53565b5090565b90565b611b9491905b80821115611b90576000816000905550600101611b78565b5090565b9056fe53656e64657220646f7365206e6f7420686176652061206d616e61676572206b65792e53656e64657220646f6573206e6f7420686176652061206d616e61676572206b65792ea165627a7a723058202e723e51be86295131e831e6ec775512f552fb888f9e93c6c94ca9b014eeeba70029",
  "source": "pragma solidity >=0.4.21 <0.6.0;\n\ninterface ERC734 {\n    event KeyAdded(\n        bytes32 indexed key,\n        uint256 indexed purpose,\n        uint256 indexed keyType\n    );\n    event KeyRemoved(\n        bytes32 indexed key,\n        uint256 indexed purpose,\n        uint256 indexed keyType\n    );\n    event ExecutionRequested(\n        uint256 indexed executionID,\n        address indexed to,\n        uint256 indexed value,\n        bytes data\n    );\n    event Executed(\n        uint256 indexed executionID,\n        address indexed to,\n        uint256 indexed value,\n        bytes data\n    );\n    event Approved(uint256 indexed executionID, bool approved);\n    event KeysRequiredChanged(uint256 purpose, uint256 number);\n    \n    event ClaimAdded(bytes32 indexed claimId, uint256 indexed claimType, uint256 scheme, address indexed issuer, bytes signature, bytes data, string uri);\n    event ClaimRemoved(bytes32 indexed claimId, uint256 indexed claimType, uint256 scheme, address indexed issuer, bytes signature, bytes data, string uri);\n    event ClaimChanged(bytes32 indexed claimId, uint256 indexed claimType, uint256 scheme, address indexed issuer, bytes signature, bytes data, string uri);\n    \n    struct Key {\n        uint256 purpose; // MANAGEMENT_KEY = 1, EXECUTION_KEY = 2\n        uint256 keyType; // ECDSA = 1, RSA = 2\n        bytes32 key;\n    }\n    \n    struct Claim {\n        uint256 claimType;\n        address issuer; // msg.sender\n        uint256 signatureType; // The type of signature\n        bytes signature; // this.address + claimType + claim\n        bytes claim;\n        string uri;\n    }\n\n    function keyHasPurpose(bytes32 _key, uint256 _purpose)\n        external\n        view\n        returns (bool exists);\n\n    function getKey(bytes32 _key)\n        external\n        view\n        returns (uint256 purpose, uint256 keyType, bytes32 key);\n\n    function getKeysByPurpose(uint256 _purpose)\n        external\n        view\n        returns (bytes32[] memory keys);\n\n    function addKey(bytes32 _key, uint256 _purpose, uint256 _keyType)\n        external\n        returns (bool success);\n\n    function removeKey(bytes32 _key, uint256 _purpose)\n        external\n        returns (bool success);\n    // function changeKeysRequired(uint256 purpose, uint256 number) external;\n    // function getKeysRequired(uint256 purpose) external view returns (uint256);\n    // function execute(address _to, uint256 _value, bytes calldata _data) external returns (uint256 executionID);\n    // function approve(uint256 _id, bool _approve) external returns (bool success);\n}\n\ncontract KeyManager is ERC734 {\n    uint256 constant MANAGEMENT_KEY = 1;\n    uint256 constant EXECUTION_KEY = 2;\n    uint256 constant CLAIM_SIGNER_KEY = 3;\n    uint256 constant ECDSA_TYPE = 1;\n    uint256 constant RSA_TYPE = 2;\n    mapping(bytes32 => Key) keys;\n    mapping(uint256 => bytes32[]) keysByPurpose;\n    mapping (bytes32 => Claim) claims;\n    mapping (uint256 => bytes32[]) claimsByType;\n    constructor() public {\n        bytes32 _key = keccak256(abi.encodePacked(msg.sender));\n        keys[_key] = Key({\n            purpose: MANAGEMENT_KEY,\n            keyType: ECDSA_TYPE,\n            key: _key\n        });\n        keysByPurpose[MANAGEMENT_KEY].push(_key);\n        emit KeyAdded(_key, MANAGEMENT_KEY, ECDSA_TYPE);\n    }\n\n    function keyHasPurpose(bytes32 _key, uint256 _purpose)\n        external\n        view\n        returns (bool isExistent)\n    {\n        if (keys[_key].key == 0) return false;\n        if (keys[_key].purpose == _purpose) {\n            return true;\n        } else {\n            return false;\n        }\n    }\n\n    function getKey(bytes32 _key)\n        external\n        view\n        returns (uint256 purpose, uint256 keyType, bytes32 key)\n    {\n        return (keys[_key].purpose, keys[_key].keyType, keys[_key].key);\n    }\n\n    function getKeysByPurpose(uint256 _purpose)\n        external\n        view\n        returns (bytes32[] memory _keys)\n    {\n        return keysByPurpose[_purpose];\n    }\n\n    function addKey(bytes32 _key, uint256 _purpose, uint256 _keyType)\n        external\n        returns (bool success)\n    {\n        require(keys[_key].key != _key, \"Key already exists.\");\n        if (msg.sender != address(this)) {\n            require(\n                this.keyHasPurpose(keccak256(abi.encodePacked(msg.sender)), 1),\n                \"Sender dose not have a manager key.\"\n            );\n        }\n        keys[_key] = Key({key: _key, purpose: _purpose, keyType: _keyType});\n        keysByPurpose[_purpose].push(_key);\n        emit KeyAdded(_key, _purpose, _keyType);\n        return true;\n    }\n\n    function removeKey(bytes32 _key, uint256 _purpose)\n        external\n        returns (bool success)\n    {\n        require(keys[_key].key == _key, \"No such key.\");\n        if (msg.sender != address(this)) {\n            require(\n                this.keyHasPurpose(keccak256(abi.encodePacked(msg.sender)), 1),\n                \"Sender does not have a manager key.\"\n            );\n        }\n        delete keys[_key];\n        bytes32[] storage keysCache = keysByPurpose[_purpose];\n        for (uint i = 0; i < keysCache.length; i++) {\n            if (keysCache[i] == _key) {\n                keysCache[i] = keysCache[keysCache.length - 1];\n                delete keysCache[keysCache.length - 1];\n                keysCache.length--;\n                break;\n            }\n        }\n        emit KeyRemoved(_key, _purpose, keys[_key].keyType);\n        return true;\n    }\n    \n    function getClaim(\n            bytes32 _claimId\n        )\n        external\n        view\n        returns\n                (uint256 claimType,\n                address issuer,\n                uint256 signatureType,\n                bytes memory signature,\n                bytes memory claim,\n                string memory uri)\n        {\n            Claim memory _claim = claims[_claimId];\n            return (_claim.claimType, _claim.issuer, _claim.signatureType, _claim.signature, _claim.claim, _claim.uri);\n        }\n        \n    function getClaimsIdByType(uint256 _claimType) external view returns(bytes32 [] memory) {\n            return claimsByType[_claimType];\n    }\n    \n    function addClaim(\n            uint256 _claimType,\n            address _issuer,\n            uint256 _signatureType,\n            bytes memory _signature,\n            bytes memory _claim,\n            string memory _uri\n        ) \n            public\n            returns (bytes32 claimId)\n        {\n            claimId = keccak256(abi.encodePacked(_issuer, _claimType));\n            claims[claimId] = Claim(\n                {\n                    claimType: _claimType,\n                    issuer: _issuer,\n                    signatureType: _signatureType,\n                    signature: _signature,\n                    claim: _claim,\n                    uri: _uri\n                }\n            );\n            claimsByType[_claimType].push(claimId);\n            emit ClaimAdded(claimId, _claimType, _signatureType, _issuer, _signature, _claim, _uri);\n        }\n    \n    function removeClaim(bytes32 _claimId) external returns (bool success) {\n        bytes32[] storage keysCache = claimsByType[claims[_claimId].claimType];\n        for (uint i = 0; i < keysCache.length; i++) {\n            if (keysCache[i] == _claimId) {\n                keysCache[i] = keysCache[keysCache.length - 1];\n                delete keysCache[keysCache.length - 1];\n                keysCache.length--;\n                break;\n            }\n        }\n        delete claims[_claimId];\n        emit ClaimRemoved(_claimId, claims[_claimId].claimType, claims[_claimId].signatureType, claims[_claimId].issuer, claims[_claimId].signature, claims[_claimId].claim, claims[_claimId].uri);\n        return true;\n    }\n}\n",
  "sourcePath": "/home/localadmin/code/solidity/identity/contracts/KeyManager.sol",
  "compiler": {
    "name": "solc",
    "version": "0.5.2+commit.1df8f40c.Emscripten.clang"
  },
  "schemaVersion": "3.0.11",
  "updatedAt": "2019-07-03T07:50:06.574Z",
  "devdoc": {
    "methods": {}
  },
  "userdoc": {
    "methods": {}
  }
}